{
  "contractName": "FixedLenghtArrays",
  "abi": [
    {
      "inputs": [
        {
          "internalType": "bytes1",
          "name": "newStr",
          "type": "bytes1"
        }
      ],
      "stateMutability": "nonpayable",
      "type": "constructor"
    },
    {
      "inputs": [
        {
          "internalType": "uint256",
          "name": "",
          "type": "uint256"
        }
      ],
      "name": "list1",
      "outputs": [
        {
          "internalType": "uint256",
          "name": "",
          "type": "uint256"
        }
      ],
      "stateMutability": "view",
      "type": "function"
    },
    {
      "inputs": [
        {
          "internalType": "uint256",
          "name": "",
          "type": "uint256"
        }
      ],
      "name": "list2",
      "outputs": [
        {
          "internalType": "int16",
          "name": "",
          "type": "int16"
        }
      ],
      "stateMutability": "view",
      "type": "function"
    },
    {
      "inputs": [
        {
          "internalType": "uint256",
          "name": "",
          "type": "uint256"
        }
      ],
      "name": "list3",
      "outputs": [
        {
          "internalType": "int8",
          "name": "",
          "type": "int8"
        }
      ],
      "stateMutability": "view",
      "type": "function"
    },
    {
      "inputs": [],
      "name": "var1",
      "outputs": [
        {
          "internalType": "bytes1",
          "name": "",
          "type": "bytes1"
        }
      ],
      "stateMutability": "view",
      "type": "function"
    },
    {
      "inputs": [],
      "name": "var2",
      "outputs": [
        {
          "internalType": "bytes2",
          "name": "",
          "type": "bytes2"
        }
      ],
      "stateMutability": "view",
      "type": "function"
    },
    {
      "inputs": [],
      "name": "var3",
      "outputs": [
        {
          "internalType": "bytes3",
          "name": "",
          "type": "bytes3"
        }
      ],
      "stateMutability": "view",
      "type": "function"
    },
    {
      "inputs": [],
      "name": "var4",
      "outputs": [
        {
          "internalType": "bytes8",
          "name": "",
          "type": "bytes8"
        }
      ],
      "stateMutability": "view",
      "type": "function"
    },
    {
      "inputs": [],
      "name": "var5",
      "outputs": [
        {
          "internalType": "bytes4",
          "name": "",
          "type": "bytes4"
        }
      ],
      "stateMutability": "view",
      "type": "function"
    }
  ],
  "bytecode": "0x60806040527f61000000000000000000000000000000000000000000000000000000000000006000806101000a81548160ff021916908360f81c02179055507f6162000000000000000000000000000000000000000000000000000000000000600060016101000a81548161ffff021916908360f01c02179055507f6162630000000000000000000000000000000000000000000000000000000000600060036101000a81548162ffffff021916908360e81c0217905550670123456789abcdef60c01b600060066101000a81548167ffffffffffffffff021916908360c01c0217905550630123456760e01b6000600e6101000a81548163ffffffff021916908360e01c0217905550604051806102800160405280600160ff168152602001600260ff168152602001600360ff168152602001600460ff168152602001600560ff168152602001600660ff168152602001600760ff168152602001600860ff168152602001600960ff168152602001600a60ff168152602001600b60ff168152602001600c60ff168152602001600d60ff168152602001600e60ff168152602001600f60ff168152602001601060ff168152602001601160ff168152602001601260ff168152602001601360ff168152602001601460ff1681525060019060146101eb929190610310565b5060405180604001604052807fffffffffffffffffffffffffffffffffffffffffffffffffffffffffffffffff60000b8152602001600260000b8152506015906002610238929190610355565b506040518060a001604052807ffffffffffffffffffffffffffffffffffffffffffffffffffffffffffffffffe60000b81526020017fffffffffffffffffffffffffffffffffffffffffffffffffffffffffffffffff60000b81526020016000800b8152602001600160000b8152602001600260000b81525060169060056102c19291906103f5565b503480156102ce57600080fd5b50604051610aae380380610aae83398181016040528101906102f0919061050c565b806000806101000a81548160ff021916908360f81c021790555050610539565b8260148101928215610344579160200282015b82811115610343578251829060ff16905591602001919060010190610323565b5b5090506103519190610492565b5090565b826002600f016010900481019282156103e45791602002820160005b838211156103b457835183826101000a81548161ffff021916908360000b61ffff1602179055509260200192600201602081600101049283019260010302610371565b80156103e25782816101000a81549061ffff02191690556002016020816001010492830192600103026103b4565b505b5090506103f19190610492565b5090565b826005601f016020900481019282156104815791602002820160005b8382111561045257835183826101000a81548160ff021916908360000b60ff1602179055509260200192600101602081600001049283019260010302610411565b801561047f5782816101000a81549060ff0219169055600101602081600001049283019260010302610452565b505b50905061048e9190610492565b5090565b5b808211156104ab576000816000905550600101610493565b5090565b600080fd5b60007fff0000000000000000000000000000000000000000000000000000000000000082169050919050565b6104e9816104b4565b81146104f457600080fd5b50565b600081519050610506816104e0565b92915050565b600060208284031215610522576105216104af565b5b6000610530848285016104f7565b91505092915050565b610566806105486000396000f3fe608060405234801561001057600080fd5b50600436106100885760003560e01c806367ed729b1161005b57806367ed729b1461011757806378d8866e14610147578063c4c3890114610165578063da96012e1461019557610088565b80634262ee4b1461008d578063507aff57146100bd5780635a412551146100db57806367e919b6146100f9575b600080fd5b6100a760048036038101906100a291906102bd565b6101b3565b6040516100b49190610306565b60405180910390f35b6100c56101dd565b6040516100d2919061035c565b60405180910390f35b6100e36101f0565b6040516100f091906103b2565b60405180910390f35b610101610203565b60405161010e9190610408565b60405180910390f35b610131600480360381019061012c91906102bd565b610214565b60405161013e9190610432565b60405180910390f35b61014f61022f565b60405161015c9190610488565b60405180910390f35b61017f600480360381019061017a91906102bd565b610242565b60405161018c91906104bf565b60405180910390f35b61019d61026f565b6040516101aa9190610515565b60405180910390f35b601681600581106101c357600080fd5b60209182820401919006915054906101000a900460000b81565b600060019054906101000a900460f01b81565b600060069054906101000a900460c01b81565b60008054906101000a900460f81b81565b6001816014811061022457600080fd5b016000915090505481565b6000600e9054906101000a900460e01b81565b6015816002811061025257600080fd5b60109182820401919006600202915054906101000a900460010b81565b600060039054906101000a900460e81b81565b600080fd5b6000819050919050565b61029a81610287565b81146102a557600080fd5b50565b6000813590506102b781610291565b92915050565b6000602082840312156102d3576102d2610282565b5b60006102e1848285016102a8565b91505092915050565b60008160000b9050919050565b610300816102ea565b82525050565b600060208201905061031b60008301846102f7565b92915050565b60007fffff00000000000000000000000000000000000000000000000000000000000082169050919050565b61035681610321565b82525050565b6000602082019050610371600083018461034d565b92915050565b60007fffffffffffffffff00000000000000000000000000000000000000000000000082169050919050565b6103ac81610377565b82525050565b60006020820190506103c760008301846103a3565b92915050565b60007fff0000000000000000000000000000000000000000000000000000000000000082169050919050565b610402816103cd565b82525050565b600060208201905061041d60008301846103f9565b92915050565b61042c81610287565b82525050565b60006020820190506104476000830184610423565b92915050565b60007fffffffff0000000000000000000000000000000000000000000000000000000082169050919050565b6104828161044d565b82525050565b600060208201905061049d6000830184610479565b92915050565b60008160010b9050919050565b6104b9816104a3565b82525050565b60006020820190506104d460008301846104b0565b92915050565b60007fffffff000000000000000000000000000000000000000000000000000000000082169050919050565b61050f816104da565b82525050565b600060208201905061052a6000830184610506565b9291505056fea2646970667358221220bb0d312192b9daaab64e8e95d863661e355fa1003f9dbd8e8591a1a994a85a3764736f6c634300080c0033",
  "immutableReferences": {},
  "source": "// SPDX-License-Identifier: MIT\r\n\r\npragma solidity >=0.4.22 <0.9.0;\r\n\r\ncontract FixedLenghtArrays {\r\n    bytes1 public var1 = \"a\";\r\n    bytes2 public var2 = \"ab\";\r\n    bytes3 public var3 = \"abc\";\r\n    bytes8 public var4 = 0x0123456789ABCDEF;\r\n    bytes4 public var5 = 0x01234567;\r\n\r\n    uint256[20] public list1 = [\r\n        1,\r\n        2,\r\n        3,\r\n        4,\r\n        5,\r\n        6,\r\n        7,\r\n        8,\r\n        9,\r\n        10,\r\n        11,\r\n        12,\r\n        13,\r\n        14,\r\n        15,\r\n        16,\r\n        17,\r\n        18,\r\n        19,\r\n        20\r\n    ];\r\n    int16[2] public list2 = [-1, 2];\r\n    int8[5] public list3 = [-2, -1, 0, 1, 2];\r\n\r\n    constructor(bytes1 newStr) {\r\n        var1 = newStr;\r\n    }\r\n\r\n}\r\n",
  "sourcePath": "F:\\DEV-BLOCKCHAIN\\solidity-demo\\soldemo\\contracts\\FixedLenghtArrays.sol",
  "compiler": {
    "name": "solc",
    "version": "0.8.12+commit.f00d7308.Emscripten.clang"
  },
  "schemaVersion": "3.4.6",
  "updatedAt": "2022-03-17T11:55:27.631Z",
  "devdoc": {
    "kind": "dev",
    "methods": {},
    "version": 1
  },
  "userdoc": {
    "kind": "user",
    "methods": {},
    "version": 1
  }
}