{
  "contractName": "ImportStatement",
  "abi": [
    {
      "inputs": [
        {
          "internalType": "uint16",
          "name": "num1",
          "type": "uint16"
        }
      ],
      "stateMutability": "nonpayable",
      "type": "constructor"
    },
    {
      "inputs": [
        {
          "internalType": "uint16",
          "name": "num2",
          "type": "uint16"
        }
      ],
      "name": "setNum",
      "outputs": [],
      "stateMutability": "nonpayable",
      "type": "function"
    },
    {
      "inputs": [],
      "name": "getNum",
      "outputs": [
        {
          "internalType": "uint16",
          "name": "",
          "type": "uint16"
        }
      ],
      "stateMutability": "view",
      "type": "function"
    }
  ],
  "bytecode": "0x608060405234801561001057600080fd5b5060405161024638038061024683398181016040528101906100329190610093565b806000806101000a81548161ffff021916908361ffff160217905550506100c0565b600080fd5b600061ffff82169050919050565b61007081610059565b811461007b57600080fd5b50565b60008151905061008d81610067565b92915050565b6000602082840312156100a9576100a8610054565b5b60006100b78482850161007e565b91505092915050565b610177806100cf6000396000f3fe608060405234801561001057600080fd5b50600436106100365760003560e01c806367e0badb1461003b578063c073665414610059575b600080fd5b610043610075565b60405161005091906100c8565b60405180910390f35b610073600480360381019061006e9190610114565b61008c565b005b60008060009054906101000a900461ffff16905090565b806000806101000a81548161ffff021916908361ffff16021790555050565b600061ffff82169050919050565b6100c2816100ab565b82525050565b60006020820190506100dd60008301846100b9565b92915050565b600080fd5b6100f1816100ab565b81146100fc57600080fd5b50565b60008135905061010e816100e8565b92915050565b60006020828403121561012a576101296100e3565b5b6000610138848285016100ff565b9150509291505056fea264697066735822122095628d4042fb351642cd6a7ab1b66aacefafea09308a862bdac845336913e41d64736f6c634300080c0033",
  "immutableReferences": {},
  "source": "// SPDX-License-Identifier: MIT\r\npragma solidity >=0.4.22 <0.9.0;\r\n\r\n/*\r\nImporting statment\r\nSimillar to Javascript import.\r\n*/\r\n\r\nimport \"./Migrations.sol\";\r\nimport \"./StoreageState.sol\";\r\n\r\ncontract ImportStatement{\r\n    uint16 newNum;\r\n\r\n    constructor (uint16 num1) {\r\n        newNum = num1;\r\n    }\r\n\r\n    function setNum(uint16 num2) public {\r\n        newNum = num2;\r\n    }\r\n\r\n    function getNum() public view returns (uint16){\r\n        return newNum;\r\n    }\r\n}\r\n",
  "sourcePath": "F:\\DEV-BLOCKCHAIN\\solidity-demo\\soldemo\\contracts\\ImportStatment.sol",
  "compiler": {
    "name": "solc",
    "version": "0.8.12+commit.f00d7308.Emscripten.clang"
  },
  "schemaVersion": "3.4.6",
  "updatedAt": "2022-03-17T11:55:27.632Z",
  "devdoc": {
    "kind": "dev",
    "methods": {},
    "version": 1
  },
  "userdoc": {
    "kind": "user",
    "methods": {},
    "version": 1
  }
}