{
  "contractName": "SingleLineComment",
  "abi": [
    {
      "inputs": [
        {
          "internalType": "uint16",
          "name": "num",
          "type": "uint16"
        }
      ],
      "stateMutability": "nonpayable",
      "type": "constructor"
    },
    {
      "inputs": [],
      "name": "newNum",
      "outputs": [
        {
          "internalType": "uint16",
          "name": "",
          "type": "uint16"
        }
      ],
      "stateMutability": "view",
      "type": "function"
    }
  ],
  "bytecode": "0x608060405234801561001057600080fd5b5060405161019138038061019183398181016040528101906100329190610093565b806000806101000a81548161ffff021916908361ffff160217905550506100c0565b600080fd5b600061ffff82169050919050565b61007081610059565b811461007b57600080fd5b50565b60008151905061008d81610067565b92915050565b6000602082840312156100a9576100a8610054565b5b60006100b78482850161007e565b91505092915050565b60c3806100ce6000396000f3fe6080604052348015600f57600080fd5b506004361060285760003560e01c8063e29710fe14602d575b600080fd5b60336047565b604051603e91906074565b60405180910390f35b60008054906101000a900461ffff1681565b600061ffff82169050919050565b606e816059565b82525050565b6000602082019050608760008301846067565b9291505056fea26469706673582212205a564e6b32df7680beb8b6a03abd49c861ab58d7a95e08715c9fe64f7bd6c83964736f6c634300080c0033",
  "immutableReferences": {},
  "source": "// SPDX-License-Identifier: MIT\r\npragma solidity >=0.4.22 <0.9.0;\r\n\r\n//SingleLineComment.sol\r\n//Throughs error\r\n\r\ncontract SingleLineComment {\r\n    uint16 public newNum;\r\n\r\n    constructor(uint16 num) {\r\n        newNum = num;\r\n    }\r\n}\r\n",
  "sourcePath": "F:\\DEV-BLOCKCHAIN\\solidity-demo\\soldemo\\contracts\\SingleLineComment.sol",
  "compiler": {
    "name": "solc",
    "version": "0.8.12+commit.f00d7308.Emscripten.clang"
  },
  "schemaVersion": "3.4.6",
  "updatedAt": "2022-03-17T11:55:27.636Z",
  "devdoc": {
    "kind": "dev",
    "methods": {},
    "version": 1
  },
  "userdoc": {
    "kind": "user",
    "methods": {},
    "version": 1
  }
}