{
  "contractName": "StorageState",
  "abi": [
    {
      "inputs": [
        {
          "internalType": "bool",
          "name": "Iflag",
          "type": "bool"
        }
      ],
      "stateMutability": "nonpayable",
      "type": "constructor"
    },
    {
      "inputs": [],
      "name": "owner",
      "outputs": [
        {
          "internalType": "address",
          "name": "",
          "type": "address"
        }
      ],
      "stateMutability": "view",
      "type": "function"
    },
    {
      "inputs": [
        {
          "internalType": "uint256",
          "name": "num",
          "type": "uint256"
        }
      ],
      "name": "set",
      "outputs": [],
      "stateMutability": "nonpayable",
      "type": "function"
    },
    {
      "inputs": [],
      "name": "get",
      "outputs": [
        {
          "internalType": "uint256",
          "name": "",
          "type": "uint256"
        }
      ],
      "stateMutability": "view",
      "type": "function"
    }
  ],
  "bytecode": "0x608060405260018060006101000a81548160ff02191690831515021790555034801561002a57600080fd5b506040516102de3803806102de833981810160405281019061004c91906100a9565b80600160006101000a81548160ff021916908315150217905550506100d6565b600080fd5b60008115159050919050565b61008681610071565b811461009157600080fd5b50565b6000815190506100a38161007d565b92915050565b6000602082840312156100bf576100be61006c565b5b60006100cd84828501610094565b91505092915050565b6101f9806100e56000396000f3fe608060405234801561001057600080fd5b50600436106100415760003560e01c806360fe47b1146100465780636d4ce63c146100625780638da5cb5b14610080575b600080fd5b610060600480360381019061005b9190610110565b61009e565b005b61006a6100a8565b604051610077919061014c565b60405180910390f35b6100886100b1565b60405161009591906101a8565b60405180910390f35b8060008190555050565b60008054905090565b60018054906101000a900473ffffffffffffffffffffffffffffffffffffffff1681565b600080fd5b6000819050919050565b6100ed816100da565b81146100f857600080fd5b50565b60008135905061010a816100e4565b92915050565b600060208284031215610126576101256100d5565b5b6000610134848285016100fb565b91505092915050565b610146816100da565b82525050565b6000602082019050610161600083018461013d565b92915050565b600073ffffffffffffffffffffffffffffffffffffffff82169050919050565b600061019282610167565b9050919050565b6101a281610187565b82525050565b60006020820190506101bd6000830184610199565b9291505056fea26469706673582212207e506bf615c9d5604a255569f97a2d707c3215a096f2c1104d5978bd311aeff364736f6c634300080c0033",
  "immutableReferences": {},
  "source": "//SPDX-License-Identifier: MIT\r\n\r\npragma solidity >=0.4.22 <0.9.0;\r\n\r\nimport \"./Migrations.sol\";\r\n\r\ncontract StorageState {\r\n    uint256 stateData;\r\n    bool flag = true;\r\n    address public owner;\r\n    \r\n    constructor (bool Iflag) {\r\n        flag = Iflag;\r\n    }\r\n\r\n    function set(uint256 num) public {\r\n        stateData = num;\r\n    }\r\n\r\n    function get() public view returns (uint256) {\r\n        return stateData;\r\n    }\r\n}\r\n",
  "sourcePath": "F:\\DEV-BLOCKCHAIN\\solidity-demo\\soldemo\\contracts\\StoreageState.sol",
  "compiler": {
    "name": "solc",
    "version": "0.8.12+commit.f00d7308.Emscripten.clang"
  },
  "schemaVersion": "3.4.6",
  "updatedAt": "2022-03-17T11:55:27.637Z",
  "devdoc": {
    "kind": "dev",
    "methods": {},
    "version": 1
  },
  "userdoc": {
    "kind": "user",
    "methods": {},
    "version": 1
  }
}